:100000007590FE30A03530A13630A23730A3387558
:1000100090FD30A03630A13730A23830A33975902A
:10002000FB30A03830A13A30A23C30A33E7590F7A7
:1000300030A03D30A13E30A23F0100017C01000113
:10004000C40100212501002131010021710100219D
:100050007501002179010075800801007580090192
:100060000075800A010075800B010075800C01008D
:10007000217D010021810100218501007580013170
:10008000A475800231A475800431A475800831A460
:1000900075801031A475802031A475804031A4751D
:1000A000808031A475804031A475802031A4758092
:1000B0001031A475800831A475800431A4758002C4
:1000C00031A4010075808131A47580C331A475808D
:1000D000E731A47580FF31A47580E731A47580C332
:1000E00031A475808131A475800031A4758081317F
:1000F000A47580C331A47580E731A47580FF31A455
:100100007580E731A47580C331A475808131A475F1
:10011000800031A47580FF31A475800031A4758002
:10012000FF31A401007580AA31A475800031A401BB
:100130000075808131AD31AD31AD31AD7580823129
:10014000AD75808031AD75808231AD75808031AD07
:1001500075802431AD31AD31AD31AD75804431ADF7
:1001600075800431AD75804431AD75800431AD01C9
:10017000007E55218F7E4B218F7E43218F7E64210F
:100180008F7E5F218F7E647E3D7D64318F0100C252
:10019000A63199D2A6319901008EF07F06DFFEDEEE
:1001A000FAAEF0227EFA7FC8DFFEDEFA227D057EFF
:1001B000FA7FC8DFFEDEFADDF6227D197EFA7FC8FF
:0701C000DFFEDEFADDF6228E
:00000001FF
